{
  "_format": "hh-sol-artifact-1",
  "contractName": "Voting",
  "sourceName": "contracts/Voting.sol",
  "abi": [
    {
      "inputs": [],
      "stateMutability": "nonpayable",
      "type": "constructor"
    },
    {
      "inputs": [
        {
          "internalType": "address",
          "name": "owner",
          "type": "address"
        }
      ],
      "name": "OwnableInvalidOwner",
      "type": "error"
    },
    {
      "inputs": [
        {
          "internalType": "address",
          "name": "account",
          "type": "address"
        }
      ],
      "name": "OwnableUnauthorizedAccount",
      "type": "error"
    },
    {
      "anonymous": false,
      "inputs": [
        {
          "indexed": true,
          "internalType": "address",
          "name": "previousOwner",
          "type": "address"
        },
        {
          "indexed": true,
          "internalType": "address",
          "name": "newOwner",
          "type": "address"
        }
      ],
      "name": "OwnershipTransferred",
      "type": "event"
    },
    {
      "anonymous": false,
      "inputs": [
        {
          "indexed": false,
          "internalType": "uint256",
          "name": "proposalId",
          "type": "uint256"
        }
      ],
      "name": "ProposalRegistered",
      "type": "event"
    },
    {
      "anonymous": false,
      "inputs": [
        {
          "indexed": false,
          "internalType": "address",
          "name": "voter",
          "type": "address"
        },
        {
          "indexed": false,
          "internalType": "uint256",
          "name": "proposalId",
          "type": "uint256"
        }
      ],
      "name": "Voted",
      "type": "event"
    },
    {
      "anonymous": false,
      "inputs": [
        {
          "indexed": false,
          "internalType": "address",
          "name": "voterAddress",
          "type": "address"
        }
      ],
      "name": "VoterRegistered",
      "type": "event"
    },
    {
      "anonymous": false,
      "inputs": [
        {
          "indexed": false,
          "internalType": "enum Voting.WorkflowStatus",
          "name": "previousStatus",
          "type": "uint8"
        },
        {
          "indexed": false,
          "internalType": "enum Voting.WorkflowStatus",
          "name": "newStatus",
          "type": "uint8"
        }
      ],
      "name": "WorkflowStatusChange",
      "type": "event"
    },
    {
      "inputs": [
        {
          "internalType": "string",
          "name": "_desc",
          "type": "string"
        }
      ],
      "name": "addProposal",
      "outputs": [],
      "stateMutability": "nonpayable",
      "type": "function"
    },
    {
      "inputs": [
        {
          "internalType": "address",
          "name": "_addr",
          "type": "address"
        }
      ],
      "name": "addVoter",
      "outputs": [],
      "stateMutability": "nonpayable",
      "type": "function"
    },
    {
      "inputs": [],
      "name": "endProposalsRegistering",
      "outputs": [],
      "stateMutability": "nonpayable",
      "type": "function"
    },
    {
      "inputs": [],
      "name": "endVotingSession",
      "outputs": [],
      "stateMutability": "nonpayable",
      "type": "function"
    },
    {
      "inputs": [
        {
          "internalType": "uint256",
          "name": "_id",
          "type": "uint256"
        }
      ],
      "name": "getOneProposal",
      "outputs": [
        {
          "components": [
            {
              "internalType": "string",
              "name": "description",
              "type": "string"
            },
            {
              "internalType": "uint256",
              "name": "voteCount",
              "type": "uint256"
            }
          ],
          "internalType": "struct Voting.Proposal",
          "name": "",
          "type": "tuple"
        }
      ],
      "stateMutability": "view",
      "type": "function"
    },
    {
      "inputs": [
        {
          "internalType": "address",
          "name": "_addr",
          "type": "address"
        }
      ],
      "name": "getVoter",
      "outputs": [
        {
          "components": [
            {
              "internalType": "bool",
              "name": "isRegistered",
              "type": "bool"
            },
            {
              "internalType": "bool",
              "name": "hasVoted",
              "type": "bool"
            },
            {
              "internalType": "uint256",
              "name": "votedProposalId",
              "type": "uint256"
            }
          ],
          "internalType": "struct Voting.Voter",
          "name": "",
          "type": "tuple"
        }
      ],
      "stateMutability": "view",
      "type": "function"
    },
    {
      "inputs": [],
      "name": "owner",
      "outputs": [
        {
          "internalType": "address",
          "name": "",
          "type": "address"
        }
      ],
      "stateMutability": "view",
      "type": "function"
    },
    {
      "inputs": [],
      "name": "renounceOwnership",
      "outputs": [],
      "stateMutability": "nonpayable",
      "type": "function"
    },
    {
      "inputs": [
        {
          "internalType": "uint256",
          "name": "_id",
          "type": "uint256"
        }
      ],
      "name": "setVote",
      "outputs": [],
      "stateMutability": "nonpayable",
      "type": "function"
    },
    {
      "inputs": [],
      "name": "startProposalsRegistering",
      "outputs": [],
      "stateMutability": "nonpayable",
      "type": "function"
    },
    {
      "inputs": [],
      "name": "startVotingSession",
      "outputs": [],
      "stateMutability": "nonpayable",
      "type": "function"
    },
    {
      "inputs": [],
      "name": "tallyVotes",
      "outputs": [],
      "stateMutability": "nonpayable",
      "type": "function"
    },
    {
      "inputs": [
        {
          "internalType": "address",
          "name": "newOwner",
          "type": "address"
        }
      ],
      "name": "transferOwnership",
      "outputs": [],
      "stateMutability": "nonpayable",
      "type": "function"
    },
    {
      "inputs": [],
      "name": "winningProposalID",
      "outputs": [
        {
          "internalType": "uint256",
          "name": "",
          "type": "uint256"
        }
      ],
      "stateMutability": "view",
      "type": "function"
    },
    {
      "inputs": [],
      "name": "workflowStatus",
      "outputs": [
        {
          "internalType": "enum Voting.WorkflowStatus",
          "name": "",
          "type": "uint8"
        }
      ],
      "stateMutability": "view",
      "type": "function"
    }
  ],
  "bytecode": "0x60806040523480156200001157600080fd5b5033600073ffffffffffffffffffffffffffffffffffffffff168173ffffffffffffffffffffffffffffffffffffffff1603620000885760006040517f1e4fbdf70000000000000000000000000000000000000000000000000000000081526004016200007f9190620001a9565b60405180910390fd5b6200009981620000a060201b60201c565b50620001c6565b60008060009054906101000a900473ffffffffffffffffffffffffffffffffffffffff169050816000806101000a81548173ffffffffffffffffffffffffffffffffffffffff021916908373ffffffffffffffffffffffffffffffffffffffff1602179055508173ffffffffffffffffffffffffffffffffffffffff168173ffffffffffffffffffffffffffffffffffffffff167f8be0079c531659141344cd1fd0a4f28419497f9722a3daafe3b4186f6b6457e060405160405180910390a35050565b600073ffffffffffffffffffffffffffffffffffffffff82169050919050565b6000620001918262000164565b9050919050565b620001a38162000184565b82525050565b6000602082019050620001c0600083018462000198565b92915050565b6124bd80620001d66000396000f3fe608060405234801561001057600080fd5b50600436106100f55760003560e01c8063a7bfab1611610097578063d4f50f9811610066578063d4f50f98146101ee578063ee74c6781461021e578063f2fde38b14610228578063f4ab9adf14610244576100f5565b8063a7bfab16146101b2578063bdc01431146101bc578063c7038a4e146101da578063c88af42f146101e4576100f5565b8063715018a6116100d3578063715018a61461013c5780638da5cb5b14610146578063a1edffa214610164578063a2788cce14610182576100f5565b8063230796ae146100fa5780632fdae3c514610116578063378a217814610132575b600080fd5b610114600480360381019061010f91906114f1565b610260565b005b610130600480360381019061012b9190611583565b61055d565b005b61013a610829565b005b6101446109df565b005b61014e6109f3565b60405161015b9190611611565b60405180910390f35b61016c610a1c565b60405161017991906116a3565b60405180910390f35b61019c600480360381019061019791906114f1565b610a2f565b6040516101a9919061179a565b60405180910390f35b6101ba610b96565b005b6101c4610c7c565b6040516101d191906117cb565b60405180910390f35b6101e2610c82565b005b6101ec610dfd565b005b61020860048036038101906102039190611812565b610ee2565b604051610215919061189c565b60405180910390f35b61022661100a565b005b610242600480360381019061023d9190611812565b6110f0565b005b61025e60048036038101906102599190611812565b611176565b005b600460003373ffffffffffffffffffffffffffffffffffffffff1673ffffffffffffffffffffffffffffffffffffffff16815260200190815260200160002060000160009054906101000a900460ff166102ef576040517f08c379a00000000000000000000000000000000000000000000000000000000081526004016102e690611914565b60405180910390fd5b600360058111156103035761030261162c565b5b600260009054906101000a900460ff1660058111156103255761032461162c565b5b14610365576040517f08c379a000000000000000000000000000000000000000000000000000000000815260040161035c906119a6565b60405180910390fd5b60011515600460003373ffffffffffffffffffffffffffffffffffffffff1673ffffffffffffffffffffffffffffffffffffffff16815260200190815260200160002060000160019054906101000a900460ff161515036103fb576040517f08c379a00000000000000000000000000000000000000000000000000000000081526004016103f290611a12565b60405180910390fd5b6003805490508110610442576040517f08c379a000000000000000000000000000000000000000000000000000000000815260040161043990611a7e565b60405180910390fd5b80600460003373ffffffffffffffffffffffffffffffffffffffff1673ffffffffffffffffffffffffffffffffffffffff168152602001908152602001600020600101819055506001600460003373ffffffffffffffffffffffffffffffffffffffff1673ffffffffffffffffffffffffffffffffffffffff16815260200190815260200160002060000160016101000a81548160ff0219169083151502179055506001600382815481106104fa576104f9611a9e565b5b9060005260206000209060020201600101600082825461051a9190611afc565b925050819055507f4d99b957a2bc29a30ebd96a7be8e68fe50a3c701db28a91436490b7d53870ca43382604051610552929190611b30565b60405180910390a150565b600460003373ffffffffffffffffffffffffffffffffffffffff1673ffffffffffffffffffffffffffffffffffffffff16815260200190815260200160002060000160009054906101000a900460ff166105ec576040517f08c379a00000000000000000000000000000000000000000000000000000000081526004016105e390611914565b60405180910390fd5b60016005811115610600576105ff61162c565b5b600260009054906101000a900460ff1660058111156106225761062161162c565b5b14610662576040517f08c379a000000000000000000000000000000000000000000000000000000000815260040161065990611ba5565b60405180910390fd5b6103e8600380549050106106ab576040517f08c379a00000000000000000000000000000000000000000000000000000000081526004016106a290611c37565b60405180910390fd5b6040516020016106ba90611c7d565b6040516020818303038152906040528051906020012082826040516020016106e3929190611cd9565b6040516020818303038152906040528051906020012003610739576040517f08c379a000000000000000000000000000000000000000000000000000000000815260040161073090611d6f565b60405180910390fd5b610741611472565b82828080601f016020809104026020016040519081016040528093929190818152602001838380828437600081840152601f19601f820116905080830192505050505050508160000181905250600381908060018154018082558091505060019003906000526020600020906002020160009091909190915060008201518160000190816107cf9190611fca565b506020820151816001015550507f92e393e9b54e2f801d3ea4beb0c5e71a21cc34a5d34b77d0fb8a3aa1650dc18f600160038054905061080f919061209c565b60405161081c91906117cb565b60405180910390a1505050565b61083161131f565b600460058111156108455761084461162c565b5b600260009054906101000a900460ff1660058111156108675761086661162c565b5b146108a7576040517f08c379a000000000000000000000000000000000000000000000000000000000815260040161089e90612142565b60405180910390fd5b6103e8600380549050106108f0576040517f08c379a00000000000000000000000000000000000000000000000000000000081526004016108e790611c37565b60405180910390fd5b600080600090505b60038054905081101561096e576003828154811061091957610918611a9e565b5b9060005260206000209060020201600101546003828154811061093f5761093e611a9e565b5b906000526020600020906002020160010154111561095b578091505b808061096690612162565b9150506108f8565b50806001819055506005600260006101000a81548160ff0219169083600581111561099c5761099b61162c565b5b02179055507f0a97a4ee45751e2abf3e4fc8946939630b11b371ea8ae39ccdc3056e98f5cc3f600460056040516109d49291906121aa565b60405180910390a150565b6109e761131f565b6109f160006113a6565b565b60008060009054906101000a900473ffffffffffffffffffffffffffffffffffffffff16905090565b600260009054906101000a900460ff1681565b610a37611472565b600460003373ffffffffffffffffffffffffffffffffffffffff1673ffffffffffffffffffffffffffffffffffffffff16815260200190815260200160002060000160009054906101000a900460ff16610ac6576040517f08c379a0000000000000000000000000000000000000000000000000000000008152600401610abd90611914565b60405180910390fd5b60038281548110610ada57610ad9611a9e565b5b9060005260206000209060020201604051806040016040529081600082018054610b0390611ded565b80601f0160208091040260200160405190810160405280929190818152602001828054610b2f90611ded565b8015610b7c5780601f10610b5157610100808354040283529160200191610b7c565b820191906000526020600020905b815481529060010190602001808311610b5f57829003601f168201915b505050505081526020016001820154815250509050919050565b610b9e61131f565b60036005811115610bb257610bb161162c565b5b600260009054906101000a900460ff166005811115610bd457610bd361162c565b5b14610c14576040517f08c379a0000000000000000000000000000000000000000000000000000000008152600401610c0b906119a6565b60405180910390fd5b6004600260006101000a81548160ff02191690836005811115610c3a57610c3961162c565b5b02179055507f0a97a4ee45751e2abf3e4fc8946939630b11b371ea8ae39ccdc3056e98f5cc3f60036004604051610c729291906121aa565b60405180910390a1565b60015481565b610c8a61131f565b60006005811115610c9e57610c9d61162c565b5b600260009054906101000a900460ff166005811115610cc057610cbf61162c565b5b14610d00576040517f08c379a0000000000000000000000000000000000000000000000000000000008152600401610cf790612245565b60405180910390fd5b6001600260006101000a81548160ff02191690836005811115610d2657610d2561162c565b5b0217905550610d33611472565b6040518060400160405280600781526020017f47454e4553495300000000000000000000000000000000000000000000000000815250816000018190525060038190806001815401808255809150506001900390600052602060002090600202016000909190919091506000820151816000019081610db29190611fca565b506020820151816001015550507f0a97a4ee45751e2abf3e4fc8946939630b11b371ea8ae39ccdc3056e98f5cc3f60006001604051610df29291906121aa565b60405180910390a150565b610e0561131f565b60016005811115610e1957610e1861162c565b5b600260009054906101000a900460ff166005811115610e3b57610e3a61162c565b5b14610e7b576040517f08c379a0000000000000000000000000000000000000000000000000000000008152600401610e72906122d7565b60405180910390fd5b60028060006101000a81548160ff02191690836005811115610ea057610e9f61162c565b5b02179055507f0a97a4ee45751e2abf3e4fc8946939630b11b371ea8ae39ccdc3056e98f5cc3f60016002604051610ed89291906121aa565b60405180910390a1565b610eea61148c565b600460003373ffffffffffffffffffffffffffffffffffffffff1673ffffffffffffffffffffffffffffffffffffffff16815260200190815260200160002060000160009054906101000a900460ff16610f79576040517f08c379a0000000000000000000000000000000000000000000000000000000008152600401610f7090611914565b60405180910390fd5b600460008373ffffffffffffffffffffffffffffffffffffffff1673ffffffffffffffffffffffffffffffffffffffff1681526020019081526020016000206040518060600160405290816000820160009054906101000a900460ff161515151581526020016000820160019054906101000a900460ff161515151581526020016001820154815250509050919050565b61101261131f565b600260058111156110265761102561162c565b5b600260009054906101000a900460ff1660058111156110485761104761162c565b5b14611088576040517f08c379a000000000000000000000000000000000000000000000000000000000815260040161107f90612369565b60405180910390fd5b6003600260006101000a81548160ff021916908360058111156110ae576110ad61162c565b5b02179055507f0a97a4ee45751e2abf3e4fc8946939630b11b371ea8ae39ccdc3056e98f5cc3f600260036040516110e69291906121aa565b60405180910390a1565b6110f861131f565b600073ffffffffffffffffffffffffffffffffffffffff168173ffffffffffffffffffffffffffffffffffffffff160361116a5760006040517f1e4fbdf70000000000000000000000000000000000000000000000000000000081526004016111619190611611565b60405180910390fd5b611173816113a6565b50565b61117e61131f565b600060058111156111925761119161162c565b5b600260009054906101000a900460ff1660058111156111b4576111b361162c565b5b146111f4576040517f08c379a00000000000000000000000000000000000000000000000000000000081526004016111eb906123fb565b60405180910390fd5b60011515600460008373ffffffffffffffffffffffffffffffffffffffff1673ffffffffffffffffffffffffffffffffffffffff16815260200190815260200160002060000160009054906101000a900460ff1615150361128a576040517f08c379a000000000000000000000000000000000000000000000000000000000815260040161128190612467565b60405180910390fd5b6001600460008373ffffffffffffffffffffffffffffffffffffffff1673ffffffffffffffffffffffffffffffffffffffff16815260200190815260200160002060000160006101000a81548160ff0219169083151502179055507fb6be2187d059cc2a55fe29e0e503b566e1e0f8c8780096e185429350acffd3dd816040516113149190611611565b60405180910390a150565b61132761146a565b73ffffffffffffffffffffffffffffffffffffffff166113456109f3565b73ffffffffffffffffffffffffffffffffffffffff16146113a45761136861146a565b6040517f118cdaa700000000000000000000000000000000000000000000000000000000815260040161139b9190611611565b60405180910390fd5b565b60008060009054906101000a900473ffffffffffffffffffffffffffffffffffffffff169050816000806101000a81548173ffffffffffffffffffffffffffffffffffffffff021916908373ffffffffffffffffffffffffffffffffffffffff1602179055508173ffffffffffffffffffffffffffffffffffffffff168173ffffffffffffffffffffffffffffffffffffffff167f8be0079c531659141344cd1fd0a4f28419497f9722a3daafe3b4186f6b6457e060405160405180910390a35050565b600033905090565b604051806040016040528060608152602001600081525090565b6040518060600160405280600015158152602001600015158152602001600081525090565b600080fd5b600080fd5b6000819050919050565b6114ce816114bb565b81146114d957600080fd5b50565b6000813590506114eb816114c5565b92915050565b600060208284031215611507576115066114b1565b5b6000611515848285016114dc565b91505092915050565b600080fd5b600080fd5b600080fd5b60008083601f8401126115435761154261151e565b5b8235905067ffffffffffffffff8111156115605761155f611523565b5b60208301915083600182028301111561157c5761157b611528565b5b9250929050565b6000806020838503121561159a576115996114b1565b5b600083013567ffffffffffffffff8111156115b8576115b76114b6565b5b6115c48582860161152d565b92509250509250929050565b600073ffffffffffffffffffffffffffffffffffffffff82169050919050565b60006115fb826115d0565b9050919050565b61160b816115f0565b82525050565b60006020820190506116266000830184611602565b92915050565b7f4e487b7100000000000000000000000000000000000000000000000000000000600052602160045260246000fd5b6006811061166c5761166b61162c565b5b50565b600081905061167d8261165b565b919050565b600061168d8261166f565b9050919050565b61169d81611682565b82525050565b60006020820190506116b86000830184611694565b92915050565b600081519050919050565b600082825260208201905092915050565b60005b838110156116f85780820151818401526020810190506116dd565b60008484015250505050565b6000601f19601f8301169050919050565b6000611720826116be565b61172a81856116c9565b935061173a8185602086016116da565b61174381611704565b840191505092915050565b611757816114bb565b82525050565b6000604083016000830151848203600086015261177a8282611715565b915050602083015161178f602086018261174e565b508091505092915050565b600060208201905081810360008301526117b4818461175d565b905092915050565b6117c5816114bb565b82525050565b60006020820190506117e060008301846117bc565b92915050565b6117ef816115f0565b81146117fa57600080fd5b50565b60008135905061180c816117e6565b92915050565b600060208284031215611828576118276114b1565b5b6000611836848285016117fd565b91505092915050565b60008115159050919050565b6118548161183f565b82525050565b606082016000820151611870600085018261184b565b506020820151611883602085018261184b565b506040820151611896604085018261174e565b50505050565b60006060820190506118b1600083018461185a565b92915050565b600082825260208201905092915050565b7f596f75277265206e6f74206120766f7465720000000000000000000000000000600082015250565b60006118fe6012836118b7565b9150611909826118c8565b602082019050919050565b6000602082019050818103600083015261192d816118f1565b9050919050565b7f566f74696e672073657373696f6e20686176656e74207374617274656420796560008201527f7400000000000000000000000000000000000000000000000000000000000000602082015250565b60006119906021836118b7565b915061199b82611934565b604082019050919050565b600060208201905081810360008301526119bf81611983565b9050919050565b7f596f75206861766520616c726561647920766f74656400000000000000000000600082015250565b60006119fc6016836118b7565b9150611a07826119c6565b602082019050919050565b60006020820190508181036000830152611a2b816119ef565b9050919050565b7f50726f706f73616c206e6f7420666f756e640000000000000000000000000000600082015250565b6000611a686012836118b7565b9150611a7382611a32565b602082019050919050565b60006020820190508181036000830152611a9781611a5b565b9050919050565b7f4e487b7100000000000000000000000000000000000000000000000000000000600052603260045260246000fd5b7f4e487b7100000000000000000000000000000000000000000000000000000000600052601160045260246000fd5b6000611b07826114bb565b9150611b12836114bb565b9250828201905080821115611b2a57611b29611acd565b5b92915050565b6000604082019050611b456000830185611602565b611b5260208301846117bc565b9392505050565b7f50726f706f73616c7320617265206e6f7420616c6c6f77656420796574000000600082015250565b6000611b8f601d836118b7565b9150611b9a82611b59565b602082019050919050565b60006020820190508181036000830152611bbe81611b82565b9050919050565b7f546865206d6178696d756d2070726f706f73616c20616d6f756e74206973207260008201527f6561636865640000000000000000000000000000000000000000000000000000602082015250565b6000611c216026836118b7565b9150611c2c82611bc5565b604082019050919050565b60006020820190508181036000830152611c5081611c14565b9050919050565b50565b6000611c676000836118b7565b9150611c7282611c57565b600082019050919050565b60006020820190508181036000830152611c9681611c5a565b9050919050565b82818337600083830152505050565b6000611cb883856118b7565b9350611cc5838584611c9d565b611cce83611704565b840190509392505050565b60006020820190508181036000830152611cf4818486611cac565b90509392505050565b7f566f7573206e6520706f7576657a20706173206e65207269656e2070726f706f60008201527f7365720000000000000000000000000000000000000000000000000000000000602082015250565b6000611d596023836118b7565b9150611d6482611cfd565b604082019050919050565b60006020820190508181036000830152611d8881611d4c565b9050919050565b7f4e487b7100000000000000000000000000000000000000000000000000000000600052604160045260246000fd5b7f4e487b7100000000000000000000000000000000000000000000000000000000600052602260045260246000fd5b60006002820490506001821680611e0557607f821691505b602082108103611e1857611e17611dbe565b5b50919050565b60008190508160005260206000209050919050565b60006020601f8301049050919050565b600082821b905092915050565b600060088302611e807fffffffffffffffffffffffffffffffffffffffffffffffffffffffffffffffff82611e43565b611e8a8683611e43565b95508019841693508086168417925050509392505050565b6000819050919050565b6000611ec7611ec2611ebd846114bb565b611ea2565b6114bb565b9050919050565b6000819050919050565b611ee183611eac565b611ef5611eed82611ece565b848454611e50565b825550505050565b600090565b611f0a611efd565b611f15818484611ed8565b505050565b5b81811015611f3957611f2e600082611f02565b600181019050611f1b565b5050565b601f821115611f7e57611f4f81611e1e565b611f5884611e33565b81016020851015611f67578190505b611f7b611f7385611e33565b830182611f1a565b50505b505050565b600082821c905092915050565b6000611fa160001984600802611f83565b1980831691505092915050565b6000611fba8383611f90565b9150826002028217905092915050565b611fd3826116be565b67ffffffffffffffff811115611fec57611feb611d8f565b5b611ff68254611ded565b612001828285611f3d565b600060209050601f8311600181146120345760008415612022578287015190505b61202c8582611fae565b865550612094565b601f19841661204286611e1e565b60005b8281101561206a57848901518255600182019150602085019450602081019050612045565b868310156120875784890151612083601f891682611f90565b8355505b6001600288020188555050505b505050505050565b60006120a7826114bb565b91506120b2836114bb565b92508282039050818111156120ca576120c9611acd565b5b92915050565b7f43757272656e7420737461747573206973206e6f7420766f74696e672073657360008201527f73696f6e20656e64656400000000000000000000000000000000000000000000602082015250565b600061212c602a836118b7565b9150612137826120d0565b604082019050919050565b6000602082019050818103600083015261215b8161211f565b9050919050565b600061216d826114bb565b91507fffffffffffffffffffffffffffffffffffffffffffffffffffffffffffffffff820361219f5761219e611acd565b5b600182019050919050565b60006040820190506121bf6000830185611694565b6121cc6020830184611694565b9392505050565b7f5265676973746572696e672070726f706f73616c732063616e7420626520737460008201527f6172746564206e6f770000000000000000000000000000000000000000000000602082015250565b600061222f6029836118b7565b915061223a826121d3565b604082019050919050565b6000602082019050818103600083015261225e81612222565b9050919050565b7f5265676973746572696e672070726f706f73616c7320686176656e742073746160008201527f7274656420796574000000000000000000000000000000000000000000000000602082015250565b60006122c16028836118b7565b91506122cc82612265565b604082019050919050565b600060208201905081810360008301526122f0816122b4565b9050919050565b7f5265676973746572696e672070726f706f73616c73207068617365206973206e60008201527f6f742066696e6973686564000000000000000000000000000000000000000000602082015250565b6000612353602b836118b7565b915061235e826122f7565b604082019050919050565b6000602082019050818103600083015261238281612346565b9050919050565b7f566f7465727320726567697374726174696f6e206973206e6f74206f70656e2060008201527f7965740000000000000000000000000000000000000000000000000000000000602082015250565b60006123e56023836118b7565b91506123f082612389565b604082019050919050565b60006020820190508181036000830152612414816123d8565b9050919050565b7f416c726561647920726567697374657265640000000000000000000000000000600082015250565b60006124516012836118b7565b915061245c8261241b565b602082019050919050565b6000602082019050818103600083015261248081612444565b905091905056fea264697066735822122043b5c40d4a313bd16449a77666e2c6e6d1b8909b0ad55e8ad4beeaa8a55d9c1f64736f6c63430008140033",
  "linkReferences": {},
  "deployedLinkReferences": {}
}